{
  "address": "0x5FbDB2315678afecb367f032d93F642f64180aa3",
  "abi": [
    {
      "anonymous": false,
      "inputs": [
        {
          "indexed": false,
          "internalType": "address",
          "name": "_caster",
          "type": "address"
        }
      ],
      "name": "BallotCast",
      "type": "event"
    },
    {
      "anonymous": false,
      "inputs": [
        {
          "indexed": false,
          "internalType": "address",
          "name": "_creator",
          "type": "address"
        },
        {
          "indexed": false,
          "internalType": "uint256",
          "name": "_electionId",
          "type": "uint256"
        }
      ],
      "name": "ElectionCreated",
      "type": "event"
    },
    {
      "anonymous": false,
      "inputs": [
        {
          "indexed": false,
          "internalType": "uint256",
          "name": "_electionId",
          "type": "uint256"
        }
      ],
      "name": "ElectionEnded",
      "type": "event"
    },
    {
      "inputs": [],
      "name": "_deposit",
      "outputs": [],
      "stateMutability": "payable",
      "type": "function"
    },
    {
      "inputs": [
        {
          "internalType": "uint256",
          "name": "electionId",
          "type": "uint256"
        },
        {
          "internalType": "address[]",
          "name": "_adrs",
          "type": "address[]"
        },
        {
          "internalType": "uint256[]",
          "name": "_votes",
          "type": "uint256[]"
        }
      ],
      "name": "castBallot",
      "outputs": [],
      "stateMutability": "nonpayable",
      "type": "function"
    },
    {
      "inputs": [
        {
          "internalType": "uint256",
          "name": "electionId",
          "type": "uint256"
        }
      ],
      "name": "endElection",
      "outputs": [],
      "stateMutability": "nonpayable",
      "type": "function"
    },
    {
      "inputs": [
        {
          "internalType": "uint256",
          "name": "electionId",
          "type": "uint256"
        }
      ],
      "name": "getElectionById",
      "outputs": [
        {
          "internalType": "string",
          "name": "name",
          "type": "string"
        },
        {
          "internalType": "uint256",
          "name": "n_addr",
          "type": "uint256"
        },
        {
          "internalType": "uint256",
          "name": "createdAt",
          "type": "uint256"
        }
      ],
      "stateMutability": "view",
      "type": "function"
    },
    {
      "inputs": [
        {
          "internalType": "string",
          "name": "_name",
          "type": "string"
        },
        {
          "internalType": "address[]",
          "name": "_candidates",
          "type": "address[]"
        }
      ],
      "name": "newElection",
      "outputs": [
        {
          "internalType": "uint256",
          "name": "electionId",
          "type": "uint256"
        }
      ],
      "stateMutability": "payable",
      "type": "function"
    },
    {
      "inputs": [],
      "name": "numElections",
      "outputs": [
        {
          "internalType": "uint256",
          "name": "",
          "type": "uint256"
        }
      ],
      "stateMutability": "view",
      "type": "function"
    }
  ],
  "transactionHash": "0x2ecbf060dfb560bb0410d4a730f917b9770b0fa5a65911028a1481199d86e831",
  "args": [],
  "solcInputHash": "bee70e02338a2af80a6edc9eb77afd15",
  "bytecode": "0x608060405234801561001057600080fd5b50610aa2806100206000396000f3fe6080604052600436106100555760003560e01c806326d6e6db1461005a5780636e38d9bd1461008057806376c0e4a1146100965780639c98bcbb146100b8578063abb721ce146100b6578063c6958b12146100d8575b600080fd5b61006d610068366004610757565b610107565b6040519081526020015b60405180910390f35b34801561008c57600080fd5b5061006d60015481565b3480156100a257600080fd5b506100b66100b136600461081e565b6101b1565b005b3480156100c457600080fd5b506100b66100d3366004610806565b6102c7565b3480156100e457600080fd5b506100f86100f3366004610806565b6103b7565b604051610077939291906108e2565b6000600180600082825461011b9190610999565b9182905550600081815260208181526040909120865192945092506101449183918701906105e6565b50825161015a906003830190602086019061066a565b506001818101805460ff1916909117905542600282015560408051338152602081018490527fc91fe4766a7a928d6625f66818425dc115b03c854a8ed8d28de2f34a684e0f1a910160405180910390a15092915050565b60008381526020818152604080832081518084018352428152338552600782019093529083209151909155905b600382015481101561028d5761027a61021d84838151811061021057634e487b7160e01b600052603260045260246000fd5b6020026020010151610479565b83600401600087858151811061024357634e487b7160e01b600052603260045260246000fd5b60200260200101516001600160a01b03166001600160a01b03168152602001908152602001600020546104d290919063ffffffff16565b508061028581610a25565b9150506101de565b506040513381527ff183946d49515551d59b8842ab89be84b1e51fe808caba2ad8ad3dfbdb050b4c9060200160405180910390a150505050565b600081815260208190526040812060018101805460ff19169055905b600382015481101561037657600082600301828154811061031457634e487b7160e01b600052603260045260246000fd5b60009182526020808320909101546001600160a01b03168083526005860190915260409091205490915061034890806109d1565b6001600160a01b0390911660009081526005840160205260409020558061036e81610a25565b9150506102e3565b50610380826104e5565b6040518281527f562cd572b2ba3b666cd989fc4ca98419ec81e75f04528df9d9d76fdb7807ee719060200160405180910390a15050565b600081815260208190526040812080546060929182916103d6906109f0565b80601f0160208091040260200160405190810160405280929190818152602001828054610402906109f0565b801561044f5780601f106104245761010080835404028352916020019161044f565b820191906000526020600020905b81548152906001019060200180831161043257829003601f168201915b50505060009687525050602085905260409094206003810154600290910154949590949350915050565b6000806002610489846001610999565b61049391906109b1565b90508291505b818110156104cc579050806002816104b181866109b1565b6104bb9190610999565b6104c591906109b1565b9050610499565b50919050565b60006104de8284610999565b9392505050565b600081815260208190526040812090805b600383015481101561056e5782600501600084600301838154811061052b57634e487b7160e01b600052603260045260246000fd5b60009182526020808320909101546001600160a01b0316835282019290925260400190205461055a9083610999565b91508061056681610a25565b9150506104f6565b506105788161057d565b505050565b6105c28160405160240161059391815260200190565b60408051601f198184030181529190526020810180516001600160e01b031663f5b1bba960e01b1790526105c5565b50565b80516a636f6e736f6c652e6c6f67602083016000808483855afa5050505050565b8280546105f2906109f0565b90600052602060002090601f016020900481019282610614576000855561065a565b82601f1061062d57805160ff191683800117855561065a565b8280016001018555821561065a579182015b8281111561065a57825182559160200191906001019061063f565b506106669291506106bf565b5090565b82805482825590600052602060002090810192821561065a579160200282015b8281111561065a57825182546001600160a01b0319166001600160a01b0390911617825560209092019160019091019061068a565b5b8082111561066657600081556001016106c0565b600082601f8301126106e4578081fd5b813560206106f96106f483610975565b610944565b80838252828201915082860187848660051b8901011115610718578586fd5b855b8581101561074a5781356001600160a01b0381168114610738578788fd5b8452928401929084019060010161071a565b5090979650505050505050565b60008060408385031215610769578182fd5b823567ffffffffffffffff80821115610780578384fd5b818501915085601f830112610793578384fd5b81356020828211156107a7576107a7610a56565b6107b9601f8301601f19168201610944565b82815288828487010111156107cc578687fd5b8282860183830137918201810195909552938501359150808211156107ef578283fd5b506107fc858286016106d4565b9150509250929050565b600060208284031215610817578081fd5b5035919050565b600080600060608486031215610832578081fd5b8335925060208085013567ffffffffffffffff80821115610851578384fd5b61085d888389016106d4565b94506040870135915080821115610872578384fd5b508501601f81018713610883578283fd5b80356108916106f482610975565b8082825284820191508484018a868560051b87010111156108b0578687fd5b8694505b838510156108d25780358352600194909401939185019185016108b4565b5080955050505050509250925092565b6060815260008451806060840152815b8181101561090f57602081880181015160808684010152016108f2565b818111156109205782608083860101525b5060208301949094525060408101919091526080601f909201601f19160101919050565b604051601f8201601f1916810167ffffffffffffffff8111828210171561096d5761096d610a56565b604052919050565b600067ffffffffffffffff82111561098f5761098f610a56565b5060051b60200190565b600082198211156109ac576109ac610a40565b500190565b6000826109cc57634e487b7160e01b81526012600452602481fd5b500490565b60008160001904831182151516156109eb576109eb610a40565b500290565b600181811c90821680610a0457607f821691505b602082108114156104cc57634e487b7160e01b600052602260045260246000fd5b6000600019821415610a3957610a39610a40565b5060010190565b634e487b7160e01b600052601160045260246000fd5b634e487b7160e01b600052604160045260246000fdfea26469706673582212204d6c19e22492f31187fa4dc7a9dd5d1caa4cd8e44b54d91bd31d5aa09d7f92f564736f6c63430008040033",
  "devdoc": {
    "kind": "dev",
    "methods": {},
    "version": 1
  },
  "userdoc": {
    "kind": "user",
    "methods": {},
    "version": 1
  },
  "storageLayout": {
    "storage": [
      {
        "astId": 1086,
        "contract": "contracts/Diplomacy.sol:Diplomacy",
        "label": "elections",
        "offset": 0,
        "slot": "0",
        "type": "t_mapping(t_uint256,t_struct(Election)1081_storage)"
      },
      {
        "astId": 1088,
        "contract": "contracts/Diplomacy.sol:Diplomacy",
        "label": "numElections",
        "offset": 0,
        "slot": "1",
        "type": "t_uint256"
      }
    ],
    "types": {
      "t_address": {
        "encoding": "inplace",
        "label": "address",
        "numberOfBytes": "20"
      },
      "t_array(t_address)dyn_storage": {
        "base": "t_address",
        "encoding": "dynamic_array",
        "label": "address[]",
        "numberOfBytes": "32"
      },
      "t_bool": {
        "encoding": "inplace",
        "label": "bool",
        "numberOfBytes": "1"
      },
      "t_mapping(t_address,t_bool)": {
        "encoding": "mapping",
        "key": "t_address",
        "label": "mapping(address => bool)",
        "numberOfBytes": "32",
        "value": "t_bool"
      },
      "t_mapping(t_address,t_struct(Ballot)1054_storage)": {
        "encoding": "mapping",
        "key": "t_address",
        "label": "mapping(address => struct Diplomacy.Ballot)",
        "numberOfBytes": "32",
        "value": "t_struct(Ballot)1054_storage"
      },
      "t_mapping(t_address,t_uint256)": {
        "encoding": "mapping",
        "key": "t_address",
        "label": "mapping(address => uint256)",
        "numberOfBytes": "32",
        "value": "t_uint256"
      },
      "t_mapping(t_uint256,t_struct(Election)1081_storage)": {
        "encoding": "mapping",
        "key": "t_uint256",
        "label": "mapping(uint256 => struct Diplomacy.Election)",
        "numberOfBytes": "32",
        "value": "t_struct(Election)1081_storage"
      },
      "t_string_storage": {
        "encoding": "bytes",
        "label": "string",
        "numberOfBytes": "32"
      },
      "t_struct(Ballot)1054_storage": {
        "encoding": "inplace",
        "label": "struct Diplomacy.Ballot",
        "members": [
          {
            "astId": 1053,
            "contract": "contracts/Diplomacy.sol:Diplomacy",
            "label": "castAt",
            "offset": 0,
            "slot": "0",
            "type": "t_uint256"
          }
        ],
        "numberOfBytes": "32"
      },
      "t_struct(Election)1081_storage": {
        "encoding": "inplace",
        "label": "struct Diplomacy.Election",
        "members": [
          {
            "astId": 1056,
            "contract": "contracts/Diplomacy.sol:Diplomacy",
            "label": "name",
            "offset": 0,
            "slot": "0",
            "type": "t_string_storage"
          },
          {
            "astId": 1058,
            "contract": "contracts/Diplomacy.sol:Diplomacy",
            "label": "active",
            "offset": 0,
            "slot": "1",
            "type": "t_bool"
          },
          {
            "astId": 1060,
            "contract": "contracts/Diplomacy.sol:Diplomacy",
            "label": "createdAt",
            "offset": 0,
            "slot": "2",
            "type": "t_uint256"
          },
          {
            "astId": 1063,
            "contract": "contracts/Diplomacy.sol:Diplomacy",
            "label": "candidates",
            "offset": 0,
            "slot": "3",
            "type": "t_array(t_address)dyn_storage"
          },
          {
            "astId": 1067,
            "contract": "contracts/Diplomacy.sol:Diplomacy",
            "label": "score",
            "offset": 0,
            "slot": "4",
            "type": "t_mapping(t_address,t_uint256)"
          },
          {
            "astId": 1071,
            "contract": "contracts/Diplomacy.sol:Diplomacy",
            "label": "result",
            "offset": 0,
            "slot": "5",
            "type": "t_mapping(t_address,t_uint256)"
          },
          {
            "astId": 1075,
            "contract": "contracts/Diplomacy.sol:Diplomacy",
            "label": "voted",
            "offset": 0,
            "slot": "6",
            "type": "t_mapping(t_address,t_bool)"
          },
          {
            "astId": 1080,
            "contract": "contracts/Diplomacy.sol:Diplomacy",
            "label": "ballot",
            "offset": 0,
            "slot": "7",
            "type": "t_mapping(t_address,t_struct(Ballot)1054_storage)"
          }
        ],
        "numberOfBytes": "256"
      },
      "t_uint256": {
        "encoding": "inplace",
        "label": "uint256",
        "numberOfBytes": "32"
      }
    }
  }
}