{
  "address": "0xa513E6E4b8f2a923D98304ec87F64353C4D5C853",
  "abi": [
    {
      "anonymous": false,
      "inputs": [
        {
          "indexed": false,
          "internalType": "address",
          "name": "_creator",
          "type": "address"
        },
        {
          "indexed": false,
          "internalType": "uint256",
          "name": "_electionId",
          "type": "uint256"
        }
      ],
      "name": "ElectionCreated",
      "type": "event"
    },
    {
      "inputs": [],
      "name": "_deposit",
      "outputs": [],
      "stateMutability": "payable",
      "type": "function"
    },
    {
      "inputs": [
        {
          "internalType": "uint256",
          "name": "id",
          "type": "uint256"
        }
      ],
      "name": "getElectionById",
      "outputs": [
        {
          "internalType": "string",
          "name": "name",
          "type": "string"
        },
        {
          "internalType": "uint256",
          "name": "n_addr",
          "type": "uint256"
        }
      ],
      "stateMutability": "view",
      "type": "function"
    },
    {
      "inputs": [
        {
          "internalType": "string",
          "name": "_name",
          "type": "string"
        },
        {
          "internalType": "address[]",
          "name": "_candidates",
          "type": "address[]"
        }
      ],
      "name": "newElection",
      "outputs": [
        {
          "internalType": "uint256",
          "name": "electionId",
          "type": "uint256"
        }
      ],
      "stateMutability": "nonpayable",
      "type": "function"
    },
    {
      "inputs": [],
      "name": "numElections",
      "outputs": [
        {
          "internalType": "uint256",
          "name": "",
          "type": "uint256"
        }
      ],
      "stateMutability": "view",
      "type": "function"
    }
  ],
  "transactionHash": "0x967481fc977a8fca55b9dbaeb4281a566a02fa02652b0ebdda7a3b4948ef9680",
  "args": [],
  "solcInputHash": "40290ae24fb9dc6c13de5ee21ec1ab59",
  "bytecode": "0x608060405234801561001057600080fd5b50610589806100206000396000f3fe60806040526004361061003f5760003560e01c806326d6e6db146100445780636e38d9bd14610077578063abb721ce1461008d578063c6958b121461008f575b600080fd5b34801561005057600080fd5b5061006461005f366004610388565b6100bd565b6040519081526020015b60405180910390f35b34801561008357600080fd5b5061006460015481565b005b34801561009b57600080fd5b506100af6100aa366004610437565b61014d565b60405161006e92919061044f565b60018054600091826100ce83610516565b909155506000818152602081815260409091208551929350916100f691839190870190610203565b50825161010c9060018301906020860190610287565b5060408051338152602081018490527fc91fe4766a7a928d6625f66818425dc115b03c854a8ed8d28de2f34a684e0f1a910160405180910390a15092915050565b60008181526020819052604081208054606092919061016b906104db565b80601f0160208091040260200160405190810160405280929190818152602001828054610197906104db565b80156101e45780601f106101b9576101008083540402835291602001916101e4565b820191906000526020600020905b8154815290600101906020018083116101c757829003601f168201915b5050506000958652505060208490526040909320600101549293915050565b82805461020f906104db565b90600052602060002090601f0160209004810192826102315760008555610277565b82601f1061024a57805160ff1916838001178555610277565b82800160010185558215610277579182015b8281111561027757825182559160200191906001019061025c565b506102839291506102dc565b5090565b828054828255906000526020600020908101928215610277579160200282015b8281111561027757825182546001600160a01b0319166001600160a01b039091161782556020909201916001909101906102a7565b5b8082111561028357600081556001016102dd565b600082601f830112610301578081fd5b8135602067ffffffffffffffff82111561031d5761031d61053d565b8160051b61032c8282016104aa565b838152828101908684018388018501891015610346578687fd5b8693505b8584101561037c5780356001600160a01b0381168114610368578788fd5b83526001939093019291840191840161034a565b50979650505050505050565b6000806040838503121561039a578182fd5b823567ffffffffffffffff808211156103b1578384fd5b818501915085601f8301126103c4578384fd5b81356020828211156103d8576103d861053d565b6103ea601f8301601f191682016104aa565b82815288828487010111156103fd578687fd5b828286018383013791820181019590955293850135915080821115610420578283fd5b5061042d858286016102f1565b9150509250929050565b600060208284031215610448578081fd5b5035919050565b6040815260008351806040840152815b8181101561047c576020818701810151606086840101520161045f565b8181111561048d5782606083860101525b50602083019390935250601f91909101601f191601606001919050565b604051601f8201601f1916810167ffffffffffffffff811182821017156104d3576104d361053d565b604052919050565b600181811c908216806104ef57607f821691505b6020821081141561051057634e487b7160e01b600052602260045260246000fd5b50919050565b600060001982141561053657634e487b7160e01b81526011600452602481fd5b5060010190565b634e487b7160e01b600052604160045260246000fdfea2646970667358221220f4e5576ecb082dbe5023dc63a41bad04afdba774777d5cbe153c28c93b8eec0364736f6c63430008040033",
  "devdoc": {
    "kind": "dev",
    "methods": {},
    "version": 1
  },
  "userdoc": {
    "kind": "user",
    "methods": {},
    "version": 1
  },
  "storageLayout": {
    "storage": [
      {
        "astId": 1070,
        "contract": "contracts/Diplomacy.sol:Diplomacy",
        "label": "elections",
        "offset": 0,
        "slot": "0",
        "type": "t_mapping(t_uint256,t_struct(Election)1065_storage)"
      },
      {
        "astId": 1072,
        "contract": "contracts/Diplomacy.sol:Diplomacy",
        "label": "numElections",
        "offset": 0,
        "slot": "1",
        "type": "t_uint256"
      }
    ],
    "types": {
      "t_address": {
        "encoding": "inplace",
        "label": "address",
        "numberOfBytes": "20"
      },
      "t_array(t_address)dyn_storage": {
        "base": "t_address",
        "encoding": "dynamic_array",
        "label": "address[]",
        "numberOfBytes": "32"
      },
      "t_bool": {
        "encoding": "inplace",
        "label": "bool",
        "numberOfBytes": "1"
      },
      "t_mapping(t_address,t_bool)": {
        "encoding": "mapping",
        "key": "t_address",
        "label": "mapping(address => bool)",
        "numberOfBytes": "32",
        "value": "t_bool"
      },
      "t_mapping(t_address,t_uint256)": {
        "encoding": "mapping",
        "key": "t_address",
        "label": "mapping(address => uint256)",
        "numberOfBytes": "32",
        "value": "t_uint256"
      },
      "t_mapping(t_uint256,t_struct(Election)1065_storage)": {
        "encoding": "mapping",
        "key": "t_uint256",
        "label": "mapping(uint256 => struct Diplomacy.Election)",
        "numberOfBytes": "32",
        "value": "t_struct(Election)1065_storage"
      },
      "t_string_storage": {
        "encoding": "bytes",
        "label": "string",
        "numberOfBytes": "32"
      },
      "t_struct(Election)1065_storage": {
        "encoding": "inplace",
        "label": "struct Diplomacy.Election",
        "members": [
          {
            "astId": 1053,
            "contract": "contracts/Diplomacy.sol:Diplomacy",
            "label": "name",
            "offset": 0,
            "slot": "0",
            "type": "t_string_storage"
          },
          {
            "astId": 1056,
            "contract": "contracts/Diplomacy.sol:Diplomacy",
            "label": "candidates",
            "offset": 0,
            "slot": "1",
            "type": "t_array(t_address)dyn_storage"
          },
          {
            "astId": 1060,
            "contract": "contracts/Diplomacy.sol:Diplomacy",
            "label": "score",
            "offset": 0,
            "slot": "2",
            "type": "t_mapping(t_address,t_uint256)"
          },
          {
            "astId": 1064,
            "contract": "contracts/Diplomacy.sol:Diplomacy",
            "label": "voted",
            "offset": 0,
            "slot": "3",
            "type": "t_mapping(t_address,t_bool)"
          }
        ],
        "numberOfBytes": "128"
      },
      "t_uint256": {
        "encoding": "inplace",
        "label": "uint256",
        "numberOfBytes": "32"
      }
    }
  }
}