{
  "address": "0x9fE46736679d2D9a65F0992F2272dE9f3c7fa6e0",
  "abi": [
    {
      "anonymous": false,
      "inputs": [
        {
          "indexed": false,
          "internalType": "address",
          "name": "_creator",
          "type": "address"
        },
        {
          "indexed": false,
          "internalType": "uint256",
          "name": "_electionId",
          "type": "uint256"
        }
      ],
      "name": "ElectionCreated",
      "type": "event"
    },
    {
      "inputs": [
        {
          "internalType": "string",
          "name": "_name",
          "type": "string"
        },
        {
          "internalType": "address[]",
          "name": "_candidates",
          "type": "address[]"
        }
      ],
      "name": "newElection",
      "outputs": [
        {
          "internalType": "uint256",
          "name": "electionId",
          "type": "uint256"
        }
      ],
      "stateMutability": "nonpayable",
      "type": "function"
    }
  ],
  "transactionHash": "0x11404bb024b6c4c3bb4b36b245d23a171c77b1a4f20813e1f2269aeafd62c6f8",
  "args": [],
  "solcInputHash": "453695dd799ae391f233d50e58d32358",
  "bytecode": "0x608060405234801561001057600080fd5b506103f8806100206000396000f3fe608060405234801561001057600080fd5b506004361061002b5760003560e01c806326d6e6db14610030575b600080fd5b61004361003e36600461026a565b610055565b60405190815260200160405180910390f35b600180546000918261006683610385565b9091555060008181526020818152604090912085519293509161008e918391908701906100e5565b5082516100a49060018301906020860190610169565b5060408051338152602081018490527fc91fe4766a7a928d6625f66818425dc115b03c854a8ed8d28de2f34a684e0f1a910160405180910390a15092915050565b8280546100f19061034a565b90600052602060002090601f0160209004810192826101135760008555610159565b82601f1061012c57805160ff1916838001178555610159565b82800160010185558215610159579182015b8281111561015957825182559160200191906001019061013e565b506101659291506101be565b5090565b828054828255906000526020600020908101928215610159579160200282015b8281111561015957825182546001600160a01b0319166001600160a01b03909116178255602090920191600190910190610189565b5b8082111561016557600081556001016101bf565b600082601f8301126101e3578081fd5b8135602067ffffffffffffffff8211156101ff576101ff6103ac565b8160051b61020e828201610319565b838152828101908684018388018501891015610228578687fd5b8693505b8584101561025e5780356001600160a01b038116811461024a578788fd5b83526001939093019291840191840161022c565b50979650505050505050565b6000806040838503121561027c578182fd5b823567ffffffffffffffff80821115610293578384fd5b818501915085601f8301126102a6578384fd5b81356020828211156102ba576102ba6103ac565b6102cc601f8301601f19168201610319565b82815288828487010111156102df578687fd5b828286018383013791820181019590955293850135915080821115610302578283fd5b5061030f858286016101d3565b9150509250929050565b604051601f8201601f1916810167ffffffffffffffff81118282101715610342576103426103ac565b604052919050565b600181811c9082168061035e57607f821691505b6020821081141561037f57634e487b7160e01b600052602260045260246000fd5b50919050565b60006000198214156103a557634e487b7160e01b81526011600452602481fd5b5060010190565b634e487b7160e01b600052604160045260246000fdfea2646970667358221220a0aa758b7ff424da1555b0e870e4ebd921398ea2bd86847db5e2a14942e281ad64736f6c63430008040033",
  "devdoc": {
    "kind": "dev",
    "methods": {},
    "version": 1
  },
  "userdoc": {
    "kind": "user",
    "methods": {},
    "version": 1
  },
  "storageLayout": {
    "storage": [
      {
        "astId": 1070,
        "contract": "contracts/Diplomacy.sol:Diplomacy",
        "label": "elections",
        "offset": 0,
        "slot": "0",
        "type": "t_mapping(t_uint256,t_struct(Election)1065_storage)"
      },
      {
        "astId": 1072,
        "contract": "contracts/Diplomacy.sol:Diplomacy",
        "label": "numElections",
        "offset": 0,
        "slot": "1",
        "type": "t_uint256"
      }
    ],
    "types": {
      "t_address": {
        "encoding": "inplace",
        "label": "address",
        "numberOfBytes": "20"
      },
      "t_array(t_address)dyn_storage": {
        "base": "t_address",
        "encoding": "dynamic_array",
        "label": "address[]",
        "numberOfBytes": "32"
      },
      "t_bool": {
        "encoding": "inplace",
        "label": "bool",
        "numberOfBytes": "1"
      },
      "t_mapping(t_address,t_bool)": {
        "encoding": "mapping",
        "key": "t_address",
        "label": "mapping(address => bool)",
        "numberOfBytes": "32",
        "value": "t_bool"
      },
      "t_mapping(t_address,t_uint256)": {
        "encoding": "mapping",
        "key": "t_address",
        "label": "mapping(address => uint256)",
        "numberOfBytes": "32",
        "value": "t_uint256"
      },
      "t_mapping(t_uint256,t_struct(Election)1065_storage)": {
        "encoding": "mapping",
        "key": "t_uint256",
        "label": "mapping(uint256 => struct Diplomacy.Election)",
        "numberOfBytes": "32",
        "value": "t_struct(Election)1065_storage"
      },
      "t_string_storage": {
        "encoding": "bytes",
        "label": "string",
        "numberOfBytes": "32"
      },
      "t_struct(Election)1065_storage": {
        "encoding": "inplace",
        "label": "struct Diplomacy.Election",
        "members": [
          {
            "astId": 1053,
            "contract": "contracts/Diplomacy.sol:Diplomacy",
            "label": "name",
            "offset": 0,
            "slot": "0",
            "type": "t_string_storage"
          },
          {
            "astId": 1056,
            "contract": "contracts/Diplomacy.sol:Diplomacy",
            "label": "candidates",
            "offset": 0,
            "slot": "1",
            "type": "t_array(t_address)dyn_storage"
          },
          {
            "astId": 1060,
            "contract": "contracts/Diplomacy.sol:Diplomacy",
            "label": "score",
            "offset": 0,
            "slot": "2",
            "type": "t_mapping(t_address,t_uint256)"
          },
          {
            "astId": 1064,
            "contract": "contracts/Diplomacy.sol:Diplomacy",
            "label": "voted",
            "offset": 0,
            "slot": "3",
            "type": "t_mapping(t_address,t_bool)"
          }
        ],
        "numberOfBytes": "128"
      },
      "t_uint256": {
        "encoding": "inplace",
        "label": "uint256",
        "numberOfBytes": "32"
      }
    }
  }
}