{
  "address": "0x5FbDB2315678afecb367f032d93F642f64180aa3",
  "abi": [
    {
      "inputs": [],
      "stateMutability": "nonpayable",
      "type": "constructor"
    },
    {
      "inputs": [
        {
          "internalType": "int256",
          "name": "x",
          "type": "int256"
        }
      ],
      "name": "PRBMathSD59x18__Exp2InputTooBig",
      "type": "error"
    },
    {
      "inputs": [
        {
          "internalType": "int256",
          "name": "x",
          "type": "int256"
        }
      ],
      "name": "PRBMathSD59x18__LogInputTooSmall",
      "type": "error"
    },
    {
      "inputs": [],
      "name": "PRBMathSD59x18__MulInputTooSmall",
      "type": "error"
    },
    {
      "inputs": [
        {
          "internalType": "uint256",
          "name": "rAbs",
          "type": "uint256"
        }
      ],
      "name": "PRBMathSD59x18__MulOverflow",
      "type": "error"
    },
    {
      "inputs": [
        {
          "internalType": "int256",
          "name": "x",
          "type": "int256"
        }
      ],
      "name": "PRBMathSD59x18__SqrtNegativeInput",
      "type": "error"
    },
    {
      "inputs": [
        {
          "internalType": "int256",
          "name": "x",
          "type": "int256"
        }
      ],
      "name": "PRBMathSD59x18__SqrtOverflow",
      "type": "error"
    },
    {
      "inputs": [
        {
          "internalType": "uint256",
          "name": "prod1",
          "type": "uint256"
        }
      ],
      "name": "PRBMath__MulDivFixedPointOverflow",
      "type": "error"
    },
    {
      "anonymous": false,
      "inputs": [
        {
          "indexed": false,
          "internalType": "address",
          "name": "voter",
          "type": "address"
        },
        {
          "indexed": false,
          "internalType": "uint256",
          "name": "electionId",
          "type": "uint256"
        },
        {
          "indexed": false,
          "internalType": "address[]",
          "name": "adrs",
          "type": "address[]"
        },
        {
          "indexed": false,
          "internalType": "int256[]",
          "name": "votes",
          "type": "int256[]"
        }
      ],
      "name": "BallotCast",
      "type": "event"
    },
    {
      "anonymous": false,
      "inputs": [
        {
          "indexed": false,
          "internalType": "address",
          "name": "creator",
          "type": "address"
        },
        {
          "indexed": false,
          "internalType": "uint256",
          "name": "electionId",
          "type": "uint256"
        }
      ],
      "name": "ElectionCreated",
      "type": "event"
    },
    {
      "anonymous": false,
      "inputs": [
        {
          "indexed": false,
          "internalType": "uint256",
          "name": "electionId",
          "type": "uint256"
        }
      ],
      "name": "ElectionEnded",
      "type": "event"
    },
    {
      "anonymous": false,
      "inputs": [
        {
          "indexed": true,
          "internalType": "bytes32",
          "name": "role",
          "type": "bytes32"
        },
        {
          "indexed": true,
          "internalType": "bytes32",
          "name": "previousAdminRole",
          "type": "bytes32"
        },
        {
          "indexed": true,
          "internalType": "bytes32",
          "name": "newAdminRole",
          "type": "bytes32"
        }
      ],
      "name": "RoleAdminChanged",
      "type": "event"
    },
    {
      "anonymous": false,
      "inputs": [
        {
          "indexed": true,
          "internalType": "bytes32",
          "name": "role",
          "type": "bytes32"
        },
        {
          "indexed": true,
          "internalType": "address",
          "name": "account",
          "type": "address"
        },
        {
          "indexed": true,
          "internalType": "address",
          "name": "sender",
          "type": "address"
        }
      ],
      "name": "RoleGranted",
      "type": "event"
    },
    {
      "anonymous": false,
      "inputs": [
        {
          "indexed": true,
          "internalType": "bytes32",
          "name": "role",
          "type": "bytes32"
        },
        {
          "indexed": true,
          "internalType": "address",
          "name": "account",
          "type": "address"
        },
        {
          "indexed": true,
          "internalType": "address",
          "name": "sender",
          "type": "address"
        }
      ],
      "name": "RoleRevoked",
      "type": "event"
    },
    {
      "inputs": [],
      "name": "DEFAULT_ADMIN_ROLE",
      "outputs": [
        {
          "internalType": "bytes32",
          "name": "",
          "type": "bytes32"
        }
      ],
      "stateMutability": "view",
      "type": "function"
    },
    {
      "inputs": [],
      "name": "_deposit",
      "outputs": [],
      "stateMutability": "payable",
      "type": "function"
    },
    {
      "inputs": [
        {
          "internalType": "uint256",
          "name": "electionId",
          "type": "uint256"
        },
        {
          "internalType": "address[]",
          "name": "_adrs",
          "type": "address[]"
        },
        {
          "internalType": "int256[]",
          "name": "_votes",
          "type": "int256[]"
        }
      ],
      "name": "castBallot",
      "outputs": [],
      "stateMutability": "nonpayable",
      "type": "function"
    },
    {
      "inputs": [
        {
          "internalType": "uint256",
          "name": "",
          "type": "uint256"
        }
      ],
      "name": "elections",
      "outputs": [
        {
          "internalType": "string",
          "name": "note",
          "type": "string"
        },
        {
          "internalType": "bool",
          "name": "active",
          "type": "bool"
        },
        {
          "internalType": "uint256",
          "name": "createdAt",
          "type": "uint256"
        },
        {
          "internalType": "uint256",
          "name": "allocatedFunds",
          "type": "uint256"
        },
        {
          "internalType": "int256",
          "name": "allocatedVotes",
          "type": "int256"
        }
      ],
      "stateMutability": "view",
      "type": "function"
    },
    {
      "inputs": [
        {
          "internalType": "uint256",
          "name": "electionId",
          "type": "uint256"
        }
      ],
      "name": "endElection",
      "outputs": [],
      "stateMutability": "nonpayable",
      "type": "function"
    },
    {
      "inputs": [
        {
          "internalType": "uint256",
          "name": "electionId",
          "type": "uint256"
        }
      ],
      "name": "getElectionCandidates",
      "outputs": [
        {
          "internalType": "address[]",
          "name": "",
          "type": "address[]"
        }
      ],
      "stateMutability": "view",
      "type": "function"
    },
    {
      "inputs": [
        {
          "internalType": "uint256",
          "name": "electionId",
          "type": "uint256"
        },
        {
          "internalType": "address",
          "name": "_for",
          "type": "address"
        }
      ],
      "name": "getElectionCastBallotVotes",
      "outputs": [
        {
          "internalType": "int256[]",
          "name": "",
          "type": "int256[]"
        }
      ],
      "stateMutability": "nonpayable",
      "type": "function"
    },
    {
      "inputs": [
        {
          "internalType": "uint256",
          "name": "electionId",
          "type": "uint256"
        },
        {
          "internalType": "address",
          "name": "_for",
          "type": "address"
        }
      ],
      "name": "getElectionResults",
      "outputs": [
        {
          "internalType": "int256",
          "name": "",
          "type": "int256"
        }
      ],
      "stateMutability": "view",
      "type": "function"
    },
    {
      "inputs": [
        {
          "internalType": "uint256",
          "name": "electionId",
          "type": "uint256"
        },
        {
          "internalType": "address",
          "name": "_for",
          "type": "address"
        }
      ],
      "name": "getElectionScore",
      "outputs": [
        {
          "internalType": "int256",
          "name": "",
          "type": "int256"
        }
      ],
      "stateMutability": "view",
      "type": "function"
    },
    {
      "inputs": [
        {
          "internalType": "uint256",
          "name": "electionId",
          "type": "uint256"
        }
      ],
      "name": "getElectionVotedCount",
      "outputs": [
        {
          "internalType": "uint256",
          "name": "",
          "type": "uint256"
        }
      ],
      "stateMutability": "view",
      "type": "function"
    },
    {
      "inputs": [
        {
          "internalType": "uint256",
          "name": "electionId",
          "type": "uint256"
        },
        {
          "internalType": "address",
          "name": "_for",
          "type": "address"
        }
      ],
      "name": "getElectionVotedStatus",
      "outputs": [
        {
          "internalType": "bool",
          "name": "",
          "type": "bool"
        }
      ],
      "stateMutability": "view",
      "type": "function"
    },
    {
      "inputs": [
        {
          "internalType": "bytes32",
          "name": "role",
          "type": "bytes32"
        }
      ],
      "name": "getRoleAdmin",
      "outputs": [
        {
          "internalType": "bytes32",
          "name": "",
          "type": "bytes32"
        }
      ],
      "stateMutability": "view",
      "type": "function"
    },
    {
      "inputs": [
        {
          "internalType": "bytes32",
          "name": "role",
          "type": "bytes32"
        },
        {
          "internalType": "address",
          "name": "account",
          "type": "address"
        }
      ],
      "name": "grantRole",
      "outputs": [],
      "stateMutability": "nonpayable",
      "type": "function"
    },
    {
      "inputs": [
        {
          "internalType": "bytes32",
          "name": "role",
          "type": "bytes32"
        },
        {
          "internalType": "address",
          "name": "account",
          "type": "address"
        }
      ],
      "name": "hasRole",
      "outputs": [
        {
          "internalType": "bool",
          "name": "",
          "type": "bool"
        }
      ],
      "stateMutability": "view",
      "type": "function"
    },
    {
      "inputs": [
        {
          "internalType": "string",
          "name": "_note",
          "type": "string"
        },
        {
          "internalType": "uint256",
          "name": "_allocatedFunds",
          "type": "uint256"
        },
        {
          "internalType": "int256",
          "name": "_allocatedVotes",
          "type": "int256"
        },
        {
          "internalType": "address[]",
          "name": "_adrs",
          "type": "address[]"
        }
      ],
      "name": "newElection",
      "outputs": [
        {
          "internalType": "uint256",
          "name": "electionId",
          "type": "uint256"
        }
      ],
      "stateMutability": "nonpayable",
      "type": "function"
    },
    {
      "inputs": [
        {
          "internalType": "bytes32",
          "name": "role",
          "type": "bytes32"
        },
        {
          "internalType": "address",
          "name": "account",
          "type": "address"
        }
      ],
      "name": "renounceRole",
      "outputs": [],
      "stateMutability": "nonpayable",
      "type": "function"
    },
    {
      "inputs": [
        {
          "internalType": "bytes32",
          "name": "role",
          "type": "bytes32"
        },
        {
          "internalType": "address",
          "name": "account",
          "type": "address"
        }
      ],
      "name": "revokeRole",
      "outputs": [],
      "stateMutability": "nonpayable",
      "type": "function"
    },
    {
      "inputs": [
        {
          "internalType": "bytes4",
          "name": "interfaceId",
          "type": "bytes4"
        }
      ],
      "name": "supportsInterface",
      "outputs": [
        {
          "internalType": "bool",
          "name": "",
          "type": "bool"
        }
      ],
      "stateMutability": "view",
      "type": "function"
    }
  ],
  "transactionHash": "0xc2e2eaddf427fbfc29f9a115d453a982c9bf1c20dcdab750b215bdab74a64fdf",
  "args": [],
  "solcInputHash": "60597c1fe989685f2c78132778d1dee6",
  "bytecode": "0x60806040523480156200001157600080fd5b506200001f60003362000025565b620000d5565b62000031828262000035565b5050565b6000828152602081815260408083206001600160a01b038516845290915290205460ff1662000031576000828152602081815260408083206001600160a01b03851684529091529020805460ff19166001179055620000913390565b6001600160a01b0316816001600160a01b0316837f2f8788117e7eff1d82e926ec794901d17c78024a50270940304540a733656f0d60405160405180910390a45050565b61286680620000e56000396000f3fe6080604052600436106101085760003560e01c80635e6fef0111610095578063a217fddf11610064578063a217fddf14610337578063abb721ce1461012d578063be70a0091461034c578063d547741f1461036c578063f8776d731461038c57600080fd5b80635e6fef01146102a657806391d14854146102d75780639c98bcbb146102f75780639e5d46671461031757600080fd5b80632f2ff15d116100dc5780632f2ff15d146101cf57806331531869146101ef57806336568abe146102395780633e4040e7146102595780635e12845e1461027957600080fd5b8062d4f05a1461010d57806301ffc9a71461012f5780630dfcbe4e14610164578063248a9ca314610191575b600080fd5b34801561011957600080fd5b5061012d6101283660046123e9565b6103ac565b005b34801561013b57600080fd5b5061014f61014a3660046122ec565b610593565b60405190151581526020015b60405180910390f35b34801561017057600080fd5b5061018461017f3660046123d7565b6105ca565b60405161015b9190612617565b34801561019d57600080fd5b506101c16101ac3660046122a9565b60009081526020819052604090206001015490565b60405190815260200161015b565b3480156101db57600080fd5b5061012d6101ea3660046122c1565b610677565b3480156101fb57600080fd5b5061014f61020a3660046123d7565b60008281526002602090815260408083206001600160a01b038516845260060190915290205460ff1692915050565b34801561024557600080fd5b5061012d6102543660046122c1565b6106a2565b34801561026557600080fd5b506101c16102743660046122a9565b610720565b34801561028557600080fd5b506102996102943660046122a9565b6107d0565b60405161015b9190612604565b3480156102b257600080fd5b506102c66102c13660046122a9565b61083f565b60405161015b95949392919061263d565b3480156102e357600080fd5b5061014f6102f23660046122c1565b6108fa565b34801561030357600080fd5b5061012d6103123660046122a9565b610923565b34801561032357600080fd5b506101c16103323660046123d7565b610ad6565b34801561034357600080fd5b506101c1600081565b34801561035857600080fd5b506101c16103673660046123d7565b610b35565b34801561037857600080fd5b5061012d6103873660046122c1565b610b94565b34801561039857600080fd5b506101c16103a7366004612314565b610bba565b6103d67f9096faa56698daa37ec8d3542ff829c66d5e81213bd6faab8ba4e9ce824a5def336108fa565b6104275760405162461bcd60e51b815260206004820152601f60248201527f41646472657373206e6f7420456c656374696f6e2043616e646964617465210060448201526064015b60405180910390fd5b6000838152600260205260409020610440818484610ccb565b604080518082018252428152602080820185815233600090815260098601835293909320825181559251805192939261047f92600185019201906120f4565b5090505060005b8351811015610534576104bf8382815181106104b257634e487b7160e01b600052603260045260246000fd5b6020026020010151610f8d565b8260070160008684815181106104e557634e487b7160e01b600052603260045260246000fd5b60200260200101516001600160a01b03166001600160a01b03168152602001908152602001600020600082825461051c91906126f3565b9091555081905061052c816127e9565b915050610486565b5033600081815260068301602052604090819020805460ff19166001179055517f27db1214c4fc552d32c12e39c5ee1da725e0dca41bc76b16bf2aed2445b7ca0191610585918790879087906125c0565b60405180910390a150505050565b60006001600160e01b03198216637965db0b60e01b14806105c457506301ffc9a760e01b6001600160e01b03198316145b92915050565b60008281526002602052604090206001015460609060ff16156105ff5760405162461bcd60e51b815260040161041e90612674565b60008381526002602090815260408083206001600160a01b03861684526009018252918290206001018054835181840281018401909452808452909183018282801561066a57602002820191906000526020600020905b815481526020019060010190808311610656575b5050505050905092915050565b6000828152602081905260409020600101546106938133611003565b61069d8383611067565b505050565b6001600160a01b03811633146107125760405162461bcd60e51b815260206004820152602f60248201527f416363657373436f6e74726f6c3a2063616e206f6e6c792072656e6f756e636560448201526e103937b632b9903337b91039b2b63360891b606482015260840161041e565b61071c82826110eb565b5050565b600080805b6000848152600260205260409020600301548110156107c9576000848152600260205260408120600381018054600690920192918490811061077757634e487b7160e01b600052603260045260246000fd5b60009182526020808320909101546001600160a01b0316835282019290925260400190205460ff161515600114156107b757816107b3816127e9565b9250505b806107c1816127e9565b915050610725565b5092915050565b60008181526002602090815260409182902060030180548351818402810184019094528084526060939283018282801561083357602002820191906000526020600020905b81546001600160a01b03168152600190910190602001808311610815575b50505050509050919050565b60026020526000908152604090208054819061085a906127ae565b80601f0160208091040260200160405190810160405280929190818152602001828054610886906127ae565b80156108d35780601f106108a8576101008083540402835291602001916108d3565b820191906000526020600020905b8154815290600101906020018083116108b657829003601f168201915b50505050600183015460028401546004850154600590950154939460ff9092169390925085565b6000918252602082815260408084206001600160a01b0393909316845291905290205460ff1690565b61094d7ff683d40ff386c6bfda70d3877dab9eb1ab577295319df15b0c64b095c82d335c336108fa565b6109995760405162461bcd60e51b815260206004820152601b60248201527f41646472657373206e6f7420456c656374696f6e2041646d696e210000000000604482015260640161041e565b6000818152600260205260409020600181015460ff166109fb5760405162461bcd60e51b815260206004820152601760248201527f456c656374696f6e20416c726561647920456e64656421000000000000000000604482015260640161041e565b60005b6003820154811015610a92576000826003018281548110610a2f57634e487b7160e01b600052603260045260246000fd5b60009182526020808320909101546001600160a01b031680835260078601909152604090912054909150610a64906002611150565b6001600160a01b03909116600090815260088401602052604090205580610a8a816127e9565b9150506109fe565b5060018101805460ff191690556040518281527f562cd572b2ba3b666cd989fc4ca98419ec81e75f04528df9d9d76fdb7807ee719060200160405180910390a15050565b60008281526002602052604081206001015460ff1615610b085760405162461bcd60e51b815260040161041e90612674565b5060008281526002602090815260408083206001600160a01b038516845260070190915290205492915050565b60008281526002602052604081206001015460ff1615610b675760405162461bcd60e51b815260040161041e90612674565b5060008281526002602090815260408083206001600160a01b038516845260080190915290205492915050565b600082815260208190526040902060010154610bb08133611003565b61069d83836110eb565b600047841115610c025760405162461bcd60e51b81526020600482015260136024820152724e6f7420656e6f7567682062616c616e63652160681b604482015260640161041e565b60018054906000610c12836127e9565b909155506000818152600260209081526040909120875192935091610c3c9183919089019061213f565b5060048101859055600581018490558251610c6090600383019060208601906121b2565b504260028201556001808201805460ff19169091179055610c8083611196565b610c8933611205565b60408051338152602081018490527fc91fe4766a7a928d6625f66818425dc115b03c854a8ed8d28de2f34a684e0f1a910160405180910390a150949350505050565b600183015460ff16610d165760405162461bcd60e51b8152602060048201526014602482015273456c656374696f6e204e6f74204163746976652160601b604482015260640161041e565b8051825114610d605760405162461bcd60e51b8152602060048201526016602482015275416464726573732d566f7465204d69736d617463682160501b604482015260640161041e565b33600090815260068401602052604090205460ff1615610dbb5760405162461bcd60e51b81526020600482015260166024820152754164647265737320616c726561647920766f7465642160501b604482015260640161041e565b6000805b8351811015610f4257846003018181548110610deb57634e487b7160e01b600052603260045260246000fd5b60009182526020909120015484516001600160a01b0390911690859083908110610e2557634e487b7160e01b600052603260045260246000fd5b60200260200101516001600160a01b031614610e835760405162461bcd60e51b815260206004820152601b60248201527f416464726573732d43616e646964617465204d69736d61746368210000000000604482015260640161041e565b6000838281518110610ea557634e487b7160e01b600052603260045260246000fd5b60200260200101511215610efb5760405162461bcd60e51b815260206004820152601960248201527f496e76616c696420566f74652120566f7465287329203c203000000000000000604482015260640161041e565b828181518110610f1b57634e487b7160e01b600052603260045260246000fd5b602002602001015182610f2e91906126f3565b915080610f3a816127e9565b915050610dbf565b5083600501548114610f875760405162461bcd60e51b815260206004820152600e60248201526d566f7465204d6973636f756e742160901b604482015260640161041e565b50505050565b600080821215610fb35760405163608c83ff60e11b81526004810183905260240161041e565b7809392ee8e921d5d073aff322e62439fcf32d7f344649470f90821315610ff057604051632c482c3960e01b81526004810183905260240161041e565b6105c4670de0b6b3a76400008302611232565b61100d82826108fa565b61071c57611025816001600160a01b03166014611418565b611030836020611418565b60405160200161104192919061254b565b60408051601f198184030181529082905262461bcd60e51b825261041e9160040161262a565b61107182826108fa565b61071c576000828152602081815260408083206001600160a01b03851684529091529020805460ff191660011790556110a73390565b6001600160a01b0316816001600160a01b0316837f2f8788117e7eff1d82e926ec794901d17c78024a50270940304540a733656f0d60405160405180910390a45050565b6110f582826108fa565b1561071c576000828152602081815260408083206001600160a01b0385168085529252808320805460ff1916905551339285917ff6391f5c32d9c69d2a47ea670b442974b53935d1edc7fd64eb21e047a839171b9190a45050565b60008261117557811561116457600061116e565b670de0b6b3a76400005b90506105c4565b61118f61118a611184856115fa565b846116d9565b61179e565b9392505050565b60005b815181101561071c576111f37f9096faa56698daa37ec8d3542ff829c66d5e81213bd6faab8ba4e9ce824a5def8383815181106111e657634e487b7160e01b600052603260045260246000fd5b602002602001015161184d565b806111fd816127e9565b915050611199565b61122f7ff683d40ff386c6bfda70d3877dab9eb1ab577295319df15b0c64b095c82d335c8261184d565b50565b60008161124157506000919050565b50600181600160801b811061125b5760409190911b9060801c5b600160401b81106112715760209190911b9060401c5b64010000000081106112885760109190911b9060201c5b62010000811061129d5760089190911b9060101c5b61010081106112b15760049190911b9060081c5b601081106112c45760029190911b9060041c5b600881106112d457600182901b91505b60018284816112f357634e487b7160e01b600052601260045260246000fd5b048301901c9150600182848161131957634e487b7160e01b600052601260045260246000fd5b048301901c9150600182848161133f57634e487b7160e01b600052601260045260246000fd5b048301901c9150600182848161136557634e487b7160e01b600052601260045260246000fd5b048301901c9150600182848161138b57634e487b7160e01b600052601260045260246000fd5b048301901c915060018284816113b157634e487b7160e01b600052601260045260246000fd5b048301901c915060018284816113d757634e487b7160e01b600052601260045260246000fd5b048301901c915060008284816113fd57634e487b7160e01b600052601260045260246000fd5b0490508083101561140e5782611410565b805b949350505050565b6060600061142783600261274c565b611432906002612734565b67ffffffffffffffff81111561145857634e487b7160e01b600052604160045260246000fd5b6040519080825280601f01601f191660200182016040528015611482576020820181803683370190505b509050600360fc1b816000815181106114ab57634e487b7160e01b600052603260045260246000fd5b60200101906001600160f81b031916908160001a905350600f60fb1b816001815181106114e857634e487b7160e01b600052603260045260246000fd5b60200101906001600160f81b031916908160001a905350600061150c84600261274c565b611517906001612734565b90505b60018111156115ab576f181899199a1a9b1b9c1cb0b131b232b360811b85600f166010811061155957634e487b7160e01b600052603260045260246000fd5b1a60f81b82828151811061157d57634e487b7160e01b600052603260045260246000fd5b60200101906001600160f81b031916908160001a90535060049490941c936115a481612797565b905061151a565b50831561118f5760405162461bcd60e51b815260206004820181905260248201527f537472696e67733a20686578206c656e67746820696e73756666696369656e74604482015260640161041e565b600080821361161f5760405163309fa7dd60e11b81526004810183905260240161041e565b6000670de0b6b3a7640000831261163857506001611652565b6000199050826ec097ce7bc90715b34b9f10000000000492505b6000611667670de0b6b3a76400008505611857565b670de0b6b3a7640000808202945090915084821d9081141561168b57505002919050565b6706f05b59d3b200005b60008113156116d057670de0b6b3a7640000828002059150671bc16d674ec8000082126116c8579384019360019190911d905b60011d611695565b50505002919050565b6000600160ff1b8314806116f05750600160ff1b82145b1561170e57604051630d01a11b60e21b815260040160405180910390fd5b6000806000851261171f5784611724565b846000035b9150600084126117345783611739565b836000035b905060006117478383611936565b90506001600160ff1b038111156117745760405163bf79e8d960e01b81526004810182905260240161041e565b60001980871390861380821860011461178d5782611792565b826000035b98975050505050505050565b6000808212156118005768033dd1780914b97114198212156117c257506000919050565b6117ce8260000361179e565b6ec097ce7bc90715b34b9f1000000000816117f957634e487b7160e01b600052601260045260246000fd5b0592915050565b680a688906bd8b000000821261182c5760405163e69458f960e01b81526004810183905260240161041e565b670de0b6b3a7640000604083901b04611844816119f8565b9150505b919050565b61071c8282611067565b6000600160801b821061187757608091821c916118749082612734565b90505b600160401b821061189557604091821c916118929082612734565b90505b64010000000082106118b457602091821c916118b19082612734565b90505b6201000082106118d157601091821c916118ce9082612734565b90505b61010082106118ed57600891821c916118ea9082612734565b90505b6010821061190857600491821c916119059082612734565b90505b6004821061192357600291821c916119209082612734565b90505b60028210611848576105c4600182612734565b60008080600019848609848602925082811083820303915050670de0b6b3a7640000811061197a5760405163698d9a0160e11b81526004810182905260240161041e565b600080670de0b6b3a76400008688099150506706f05b59d3b1ffff8111826119b45780670de0b6b3a76400008504019450505050506105c4565b620400008285030493909111909103600160ee1b02919091177faccb18165bd6fe31ae1cf318dc5b51eee0e1ba569b88cd74c1773b91fac106690201905092915050565b600160bf1b678000000000000000821615611a1c5768016a09e667f3bcc9090260401c5b674000000000000000821615611a3b576801306fe0a31b7152df0260401c5b672000000000000000821615611a5a576801172b83c7d517adce0260401c5b671000000000000000821615611a795768010b5586cf9890f62a0260401c5b670800000000000000821615611a98576801059b0d31585743ae0260401c5b670400000000000000821615611ab757680102c9a3e778060ee70260401c5b670200000000000000821615611ad65768010163da9fb33356d80260401c5b670100000000000000821615611af557680100b1afa5abcbed610260401c5b6680000000000000821615611b135768010058c86da1c09ea20260401c5b6640000000000000821615611b31576801002c605e2e8cec500260401c5b6620000000000000821615611b4f57680100162f3904051fa10260401c5b6610000000000000821615611b6d576801000b175effdc76ba0260401c5b6608000000000000821615611b8b57680100058ba01fb9f96d0260401c5b6604000000000000821615611ba95768010002c5cc37da94920260401c5b6602000000000000821615611bc7576801000162e525ee05470260401c5b6601000000000000821615611be55768010000b17255775c040260401c5b65800000000000821615611c02576801000058b91b5bc9ae0260401c5b65400000000000821615611c1f57680100002c5c89d5ec6d0260401c5b65200000000000821615611c3c5768010000162e43f4f8310260401c5b65100000000000821615611c5957680100000b1721bcfc9a0260401c5b65080000000000821615611c765768010000058b90cf1e6e0260401c5b65040000000000821615611c93576801000002c5c863b73f0260401c5b65020000000000821615611cb057680100000162e430e5a20260401c5b65010000000000821615611ccd576801000000b1721835510260401c5b648000000000821615611ce957680100000058b90c0b490260401c5b644000000000821615611d055768010000002c5c8601cc0260401c5b642000000000821615611d21576801000000162e42fff00260401c5b641000000000821615611d3d5768010000000b17217fbb0260401c5b640800000000821615611d59576801000000058b90bfce0260401c5b640400000000821615611d7557680100000002c5c85fe30260401c5b640200000000821615611d915768010000000162e42ff10260401c5b640100000000821615611dad57680100000000b17217f80260401c5b6380000000821615611dc85768010000000058b90bfc0260401c5b6340000000821615611de3576801000000002c5c85fe0260401c5b6320000000821615611dfe57680100000000162e42ff0260401c5b6310000000821615611e19576801000000000b17217f0260401c5b6308000000821615611e3457680100000000058b90c00260401c5b6304000000821615611e4f5768010000000002c5c8600260401c5b6302000000821615611e6a576801000000000162e4300260401c5b6301000000821615611e855768010000000000b172180260401c5b62800000821615611e9f576801000000000058b90c0260401c5b62400000821615611eb957680100000000002c5c860260401c5b62200000821615611ed35768010000000000162e430260401c5b62100000821615611eed57680100000000000b17210260401c5b62080000821615611f075768010000000000058b910260401c5b62040000821615611f21576801000000000002c5c80260401c5b62020000821615611f3b57680100000000000162e40260401c5b62010000821615611f55576801000000000000b1720260401c5b618000821615611f6e57680100000000000058b90260401c5b614000821615611f875768010000000000002c5d0260401c5b612000821615611fa0576801000000000000162e0260401c5b611000821615611fb95768010000000000000b170260401c5b610800821615611fd2576801000000000000058c0260401c5b610400821615611feb57680100000000000002c60260401c5b61020082161561200457680100000000000001630260401c5b61010082161561201d57680100000000000000b10260401c5b608082161561203557680100000000000000590260401c5b604082161561204d576801000000000000002c0260401c5b602082161561206557680100000000000000160260401c5b601082161561207d576801000000000000000b0260401c5b600882161561209557680100000000000000060260401c5b60048216156120ad57680100000000000000030260401c5b60028216156120c557680100000000000000010260401c5b60018216156120dd57680100000000000000010260401c5b670de0b6b3a76400000260409190911c60bf031c90565b82805482825590600052602060002090810192821561212f579160200282015b8281111561212f578251825591602001919060010190612114565b5061213b929150612207565b5090565b82805461214b906127ae565b90600052602060002090601f01602090048101928261216d576000855561212f565b82601f1061218657805160ff191683800117855561212f565b8280016001018555821561212f579182018281111561212f578251825591602001919060010190612114565b82805482825590600052602060002090810192821561212f579160200282015b8281111561212f57825182546001600160a01b0319166001600160a01b039091161782556020909201916001909101906121d2565b5b8082111561213b5760008155600101612208565b80356001600160a01b038116811461184857600080fd5b600082601f830112612243578081fd5b81356020612258612253836126cf565b61269e565b80838252828201915082860187848660051b8901011115612277578586fd5b855b8581101561229c5761228a8261221c565b84529284019290840190600101612279565b5090979650505050505050565b6000602082840312156122ba578081fd5b5035919050565b600080604083850312156122d3578081fd5b823591506122e36020840161221c565b90509250929050565b6000602082840312156122fd578081fd5b81356001600160e01b03198116811461118f578182fd5b60008060008060808587031215612329578182fd5b843567ffffffffffffffff80821115612340578384fd5b818701915087601f830112612353578384fd5b81356020828211156123675761236761281a565b612379601f8301601f1916820161269e565b8281528a8284870101111561238c578687fd5b8282860183830137918201810195909552955092860135935050604085013591606086013590808211156123be578283fd5b506123cb87828801612233565b91505092959194509250565b600080604083850312156122d3578182fd5b6000806000606084860312156123fd578283fd5b8335925060208085013567ffffffffffffffff8082111561241c578485fd5b61242888838901612233565b9450604087013591508082111561243d578384fd5b508501601f8101871361244e578283fd5b803561245c612253826126cf565b8082825284820191508484018a868560051b870101111561247b578687fd5b8694505b8385101561249d57803583526001949094019391850191850161247f565b5080955050505050509250925092565b6000815180845260208085019450808401835b838110156124e55781516001600160a01b0316875295820195908201906001016124c0565b509495945050505050565b6000815180845260208085019450808401835b838110156124e557815187529582019590820190600101612503565b6000815180845261253781602086016020860161276b565b601f01601f19169290920160200192915050565b7f416363657373436f6e74726f6c3a206163636f756e742000000000000000000081526000835161258381601785016020880161276b565b7001034b99036b4b9b9b4b733903937b6329607d1b60179184019182015283516125b481602884016020880161276b565b01602801949350505050565b60018060a01b03851681528360208201526080604082015260006125e760808301856124ad565b82810360608401526125f981856124f0565b979650505050505050565b60208152600061118f60208301846124ad565b60208152600061118f60208301846124f0565b60208152600061118f602083018461251f565b60a08152600061265060a083018861251f565b95151560208301525060408101939093526060830191909152608090910152919050565b60208082526010908201526f41637469766520656c656374696f6e2160801b604082015260600190565b604051601f8201601f1916810167ffffffffffffffff811182821017156126c7576126c761281a565b604052919050565b600067ffffffffffffffff8211156126e9576126e961281a565b5060051b60200190565b600080821280156001600160ff1b038490038513161561271557612715612804565b600160ff1b839003841281161561272e5761272e612804565b50500190565b6000821982111561274757612747612804565b500190565b600081600019048311821515161561276657612766612804565b500290565b60005b8381101561278657818101518382015260200161276e565b83811115610f875750506000910152565b6000816127a6576127a6612804565b506000190190565b600181811c908216806127c257607f821691505b602082108114156127e357634e487b7160e01b600052602260045260246000fd5b50919050565b60006000198214156127fd576127fd612804565b5060010190565b634e487b7160e01b600052601160045260246000fd5b634e487b7160e01b600052604160045260246000fdfea26469706673582212200d1274d6bb1bddafc7217e40821cdfde25d27e58a1abf0e4fa6906e4e0c8bb0364736f6c63430008040033",
  "devdoc": {
    "kind": "dev",
    "methods": {
      "getRoleAdmin(bytes32)": {
        "details": "Returns the admin role that controls `role`. See {grantRole} and {revokeRole}. To change a role's admin, use {_setRoleAdmin}."
      },
      "grantRole(bytes32,address)": {
        "details": "Grants `role` to `account`. If `account` had not been already granted `role`, emits a {RoleGranted} event. Requirements: - the caller must have ``role``'s admin role."
      },
      "hasRole(bytes32,address)": {
        "details": "Returns `true` if `account` has been granted `role`."
      },
      "renounceRole(bytes32,address)": {
        "details": "Revokes `role` from the calling account. Roles are often managed via {grantRole} and {revokeRole}: this function's purpose is to provide a mechanism for accounts to lose their privileges if they are compromised (such as when a trusted device is misplaced). If the calling account had been granted `role`, emits a {RoleRevoked} event. Requirements: - the caller must be `account`."
      },
      "revokeRole(bytes32,address)": {
        "details": "Revokes `role` from `account`. If `account` had been granted `role`, emits a {RoleRevoked} event. Requirements: - the caller must have ``role``'s admin role."
      },
      "supportsInterface(bytes4)": {
        "details": "See {IERC165-supportsInterface}."
      }
    },
    "version": 1
  },
  "userdoc": {
    "errors": {
      "PRBMathSD59x18__Exp2InputTooBig(int256)": [
        {
          "notice": "Emitted when the input is greater than 192."
        }
      ],
      "PRBMathSD59x18__LogInputTooSmall(int256)": [
        {
          "notice": "Emitted when the input is less than or equal to zero."
        }
      ],
      "PRBMathSD59x18__MulInputTooSmall()": [
        {
          "notice": "Emitted when one of the inputs is MIN_SD59x18."
        }
      ],
      "PRBMathSD59x18__MulOverflow(uint256)": [
        {
          "notice": "Emitted when the intermediary absolute result overflows SD59x18."
        }
      ],
      "PRBMathSD59x18__SqrtNegativeInput(int256)": [
        {
          "notice": "Emitted when the input is negative."
        }
      ],
      "PRBMathSD59x18__SqrtOverflow(int256)": [
        {
          "notice": "Emitted when the calculting the square root overflows SD59x18."
        }
      ],
      "PRBMath__MulDivFixedPointOverflow(uint256)": [
        {
          "notice": "Emitted when the result overflows uint256."
        }
      ]
    },
    "kind": "user",
    "methods": {},
    "version": 1
  },
  "storageLayout": {
    "storage": [
      {
        "astId": 62,
        "contract": "contracts/YourContract.sol:YourContract",
        "label": "_roles",
        "offset": 0,
        "slot": "0",
        "type": "t_mapping(t_bytes32,t_struct(RoleData)57_storage)"
      },
      {
        "astId": 1140,
        "contract": "contracts/YourContract.sol:YourContract",
        "label": "numElections",
        "offset": 0,
        "slot": "1",
        "type": "t_uint256"
      },
      {
        "astId": 1145,
        "contract": "contracts/YourContract.sol:YourContract",
        "label": "elections",
        "offset": 0,
        "slot": "2",
        "type": "t_mapping(t_uint256,t_struct(Election)1096_storage)"
      }
    ],
    "types": {
      "t_address": {
        "encoding": "inplace",
        "label": "address",
        "numberOfBytes": "20"
      },
      "t_array(t_address)dyn_storage": {
        "base": "t_address",
        "encoding": "dynamic_array",
        "label": "address[]",
        "numberOfBytes": "32"
      },
      "t_array(t_int256)dyn_storage": {
        "base": "t_int256",
        "encoding": "dynamic_array",
        "label": "int256[]",
        "numberOfBytes": "32"
      },
      "t_bool": {
        "encoding": "inplace",
        "label": "bool",
        "numberOfBytes": "1"
      },
      "t_bytes32": {
        "encoding": "inplace",
        "label": "bytes32",
        "numberOfBytes": "32"
      },
      "t_int256": {
        "encoding": "inplace",
        "label": "int256",
        "numberOfBytes": "32"
      },
      "t_mapping(t_address,t_bool)": {
        "encoding": "mapping",
        "key": "t_address",
        "label": "mapping(address => bool)",
        "numberOfBytes": "32",
        "value": "t_bool"
      },
      "t_mapping(t_address,t_int256)": {
        "encoding": "mapping",
        "key": "t_address",
        "label": "mapping(address => int256)",
        "numberOfBytes": "32",
        "value": "t_int256"
      },
      "t_mapping(t_address,t_struct(Ballot)1065_storage)": {
        "encoding": "mapping",
        "key": "t_address",
        "label": "mapping(address => struct YourContract.Ballot)",
        "numberOfBytes": "32",
        "value": "t_struct(Ballot)1065_storage"
      },
      "t_mapping(t_bytes32,t_struct(RoleData)57_storage)": {
        "encoding": "mapping",
        "key": "t_bytes32",
        "label": "mapping(bytes32 => struct AccessControl.RoleData)",
        "numberOfBytes": "32",
        "value": "t_struct(RoleData)57_storage"
      },
      "t_mapping(t_uint256,t_struct(Election)1096_storage)": {
        "encoding": "mapping",
        "key": "t_uint256",
        "label": "mapping(uint256 => struct YourContract.Election)",
        "numberOfBytes": "32",
        "value": "t_struct(Election)1096_storage"
      },
      "t_string_storage": {
        "encoding": "bytes",
        "label": "string",
        "numberOfBytes": "32"
      },
      "t_struct(Ballot)1065_storage": {
        "encoding": "inplace",
        "label": "struct YourContract.Ballot",
        "members": [
          {
            "astId": 1061,
            "contract": "contracts/YourContract.sol:YourContract",
            "label": "castAt",
            "offset": 0,
            "slot": "0",
            "type": "t_uint256"
          },
          {
            "astId": 1064,
            "contract": "contracts/YourContract.sol:YourContract",
            "label": "votes",
            "offset": 0,
            "slot": "1",
            "type": "t_array(t_int256)dyn_storage"
          }
        ],
        "numberOfBytes": "64"
      },
      "t_struct(Election)1096_storage": {
        "encoding": "inplace",
        "label": "struct YourContract.Election",
        "members": [
          {
            "astId": 1067,
            "contract": "contracts/YourContract.sol:YourContract",
            "label": "note",
            "offset": 0,
            "slot": "0",
            "type": "t_string_storage"
          },
          {
            "astId": 1069,
            "contract": "contracts/YourContract.sol:YourContract",
            "label": "active",
            "offset": 0,
            "slot": "1",
            "type": "t_bool"
          },
          {
            "astId": 1071,
            "contract": "contracts/YourContract.sol:YourContract",
            "label": "createdAt",
            "offset": 0,
            "slot": "2",
            "type": "t_uint256"
          },
          {
            "astId": 1074,
            "contract": "contracts/YourContract.sol:YourContract",
            "label": "candidates",
            "offset": 0,
            "slot": "3",
            "type": "t_array(t_address)dyn_storage"
          },
          {
            "astId": 1076,
            "contract": "contracts/YourContract.sol:YourContract",
            "label": "allocatedFunds",
            "offset": 0,
            "slot": "4",
            "type": "t_uint256"
          },
          {
            "astId": 1078,
            "contract": "contracts/YourContract.sol:YourContract",
            "label": "allocatedVotes",
            "offset": 0,
            "slot": "5",
            "type": "t_int256"
          },
          {
            "astId": 1082,
            "contract": "contracts/YourContract.sol:YourContract",
            "label": "voted",
            "offset": 0,
            "slot": "6",
            "type": "t_mapping(t_address,t_bool)"
          },
          {
            "astId": 1086,
            "contract": "contracts/YourContract.sol:YourContract",
            "label": "scores",
            "offset": 0,
            "slot": "7",
            "type": "t_mapping(t_address,t_int256)"
          },
          {
            "astId": 1090,
            "contract": "contracts/YourContract.sol:YourContract",
            "label": "results",
            "offset": 0,
            "slot": "8",
            "type": "t_mapping(t_address,t_int256)"
          },
          {
            "astId": 1095,
            "contract": "contracts/YourContract.sol:YourContract",
            "label": "ballots",
            "offset": 0,
            "slot": "9",
            "type": "t_mapping(t_address,t_struct(Ballot)1065_storage)"
          }
        ],
        "numberOfBytes": "320"
      },
      "t_struct(RoleData)57_storage": {
        "encoding": "inplace",
        "label": "struct AccessControl.RoleData",
        "members": [
          {
            "astId": 54,
            "contract": "contracts/YourContract.sol:YourContract",
            "label": "members",
            "offset": 0,
            "slot": "0",
            "type": "t_mapping(t_address,t_bool)"
          },
          {
            "astId": 56,
            "contract": "contracts/YourContract.sol:YourContract",
            "label": "adminRole",
            "offset": 0,
            "slot": "1",
            "type": "t_bytes32"
          }
        ],
        "numberOfBytes": "64"
      },
      "t_uint256": {
        "encoding": "inplace",
        "label": "uint256",
        "numberOfBytes": "32"
      }
    }
  }
}